{
  "_format": "hh-sol-artifact-1",
  "contractName": "FlareSystemsCalculator",
  "sourceName": "contracts/protocol/implementation/FlareSystemsCalculator.sol",
  "abi": [
    {
      "inputs": [
        {
          "internalType": "contract IGovernanceSettings",
          "name": "_governanceSettings",
          "type": "address"
        },
        {
          "internalType": "address",
          "name": "_initialGovernance",
          "type": "address"
        },
        {
          "internalType": "address",
          "name": "_addressUpdater",
          "type": "address"
        },
        {
          "internalType": "uint24",
          "name": "_wNatCapPPM",
          "type": "uint24"
        },
        {
          "internalType": "uint64",
          "name": "_signingPolicySignNonPunishableDurationSeconds",
          "type": "uint64"
        },
        {
          "internalType": "uint64",
          "name": "_signingPolicySignNonPunishableDurationBlocks",
          "type": "uint64"
        },
        {
          "internalType": "uint64",
          "name": "_signingPolicySignNoRewardsDurationBlocks",
          "type": "uint64"
        }
      ],
      "stateMutability": "nonpayable",
      "type": "constructor"
    },
    {
      "anonymous": false,
      "inputs": [
        {
          "indexed": false,
          "internalType": "bytes4",
          "name": "selector",
          "type": "bytes4"
        },
        {
          "indexed": false,
          "internalType": "uint256",
          "name": "allowedAfterTimestamp",
          "type": "uint256"
        },
        {
          "indexed": false,
          "internalType": "bytes",
          "name": "encodedCall",
          "type": "bytes"
        }
      ],
      "name": "GovernanceCallTimelocked",
      "type": "event"
    },
    {
      "anonymous": false,
      "inputs": [
        {
          "indexed": false,
          "internalType": "address",
          "name": "initialGovernance",
          "type": "address"
        }
      ],
      "name": "GovernanceInitialised",
      "type": "event"
    },
    {
      "anonymous": false,
      "inputs": [
        {
          "indexed": false,
          "internalType": "address",
          "name": "governanceSettings",
          "type": "address"
        }
      ],
      "name": "GovernedProductionModeEntered",
      "type": "event"
    },
    {
      "anonymous": false,
      "inputs": [
        {
          "indexed": false,
          "internalType": "bytes4",
          "name": "selector",
          "type": "bytes4"
        },
        {
          "indexed": false,
          "internalType": "uint256",
          "name": "timestamp",
          "type": "uint256"
        }
      ],
      "name": "TimelockedGovernanceCallCanceled",
      "type": "event"
    },
    {
      "anonymous": false,
      "inputs": [
        {
          "indexed": false,
          "internalType": "bytes4",
          "name": "selector",
          "type": "bytes4"
        },
        {
          "indexed": false,
          "internalType": "uint256",
          "name": "timestamp",
          "type": "uint256"
        }
      ],
      "name": "TimelockedGovernanceCallExecuted",
      "type": "event"
    },
    {
      "anonymous": false,
      "inputs": [
        {
          "indexed": true,
          "internalType": "address",
          "name": "voter",
          "type": "address"
        },
        {
          "indexed": true,
          "internalType": "uint32",
          "name": "rewardEpochId",
          "type": "uint32"
        },
        {
          "indexed": false,
          "internalType": "address",
          "name": "delegationAddress",
          "type": "address"
        },
        {
          "indexed": false,
          "internalType": "uint16",
          "name": "delegationFeeBIPS",
          "type": "uint16"
        },
        {
          "indexed": false,
          "internalType": "uint256",
          "name": "wNatWeight",
          "type": "uint256"
        },
        {
          "indexed": false,
          "internalType": "uint256",
          "name": "wNatCappedWeight",
          "type": "uint256"
        },
        {
          "indexed": false,
          "internalType": "bytes20[]",
          "name": "nodeIds",
          "type": "bytes20[]"
        },
        {
          "indexed": false,
          "internalType": "uint256[]",
          "name": "nodeWeights",
          "type": "uint256[]"
        }
      ],
      "name": "VoterRegistrationInfo",
      "type": "event"
    },
    {
      "inputs": [
        {
          "internalType": "uint24",
          "name": "_rewardEpochId",
          "type": "uint24"
        },
        {
          "internalType": "address",
          "name": "_voter",
          "type": "address"
        }
      ],
      "name": "calculateBurnFactorPPM",
      "outputs": [
        {
          "internalType": "uint256",
          "name": "",
          "type": "uint256"
        }
      ],
      "stateMutability": "view",
      "type": "function"
    },
    {
      "inputs": [
        {
          "internalType": "address",
          "name": "_voter",
          "type": "address"
        },
        {
          "internalType": "uint32",
          "name": "_rewardEpochId",
          "type": "uint32"
        },
        {
          "internalType": "uint256",
          "name": "_votePowerBlockNumber",
          "type": "uint256"
        }
      ],
      "name": "calculateRegistrationWeight",
      "outputs": [
        {
          "internalType": "uint256",
          "name": "_registrationWeight",
          "type": "uint256"
        }
      ],
      "stateMutability": "nonpayable",
      "type": "function"
    },
    {
      "inputs": [
        {
          "internalType": "bytes4",
          "name": "_selector",
          "type": "bytes4"
        }
      ],
      "name": "cancelGovernanceCall",
      "outputs": [],
      "stateMutability": "nonpayable",
      "type": "function"
    },
    {
      "inputs": [],
      "name": "enablePChainStakeMirror",
      "outputs": [],
      "stateMutability": "nonpayable",
      "type": "function"
    },
    {
      "inputs": [],
      "name": "entityManager",
      "outputs": [
        {
          "internalType": "contract IIEntityManager",
          "name": "",
          "type": "address"
        }
      ],
      "stateMutability": "view",
      "type": "function"
    },
    {
      "inputs": [
        {
          "internalType": "bytes4",
          "name": "_selector",
          "type": "bytes4"
        }
      ],
      "name": "executeGovernanceCall",
      "outputs": [],
      "stateMutability": "nonpayable",
      "type": "function"
    },
    {
      "inputs": [],
      "name": "flareSystemsManager",
      "outputs": [
        {
          "internalType": "contract IIFlareSystemsManager",
          "name": "",
          "type": "address"
        }
      ],
      "stateMutability": "view",
      "type": "function"
    },
    {
      "inputs": [],
      "name": "getAddressUpdater",
      "outputs": [
        {
          "internalType": "address",
          "name": "_addressUpdater",
          "type": "address"
        }
      ],
      "stateMutability": "view",
      "type": "function"
    },
    {
      "inputs": [],
      "name": "governance",
      "outputs": [
        {
          "internalType": "address",
          "name": "",
          "type": "address"
        }
      ],
      "stateMutability": "view",
      "type": "function"
    },
    {
      "inputs": [],
      "name": "governanceSettings",
      "outputs": [
        {
          "internalType": "contract IGovernanceSettings",
          "name": "",
          "type": "address"
        }
      ],
      "stateMutability": "view",
      "type": "function"
    },
    {
      "inputs": [
        {
          "internalType": "contract IGovernanceSettings",
          "name": "_governanceSettings",
          "type": "address"
        },
        {
          "internalType": "address",
          "name": "_initialGovernance",
          "type": "address"
        }
      ],
      "name": "initialise",
      "outputs": [],
      "stateMutability": "nonpayable",
      "type": "function"
    },
    {
      "inputs": [
        {
          "internalType": "address",
          "name": "_address",
          "type": "address"
        }
      ],
      "name": "isExecutor",
      "outputs": [
        {
          "internalType": "bool",
          "name": "",
          "type": "bool"
        }
      ],
      "stateMutability": "view",
      "type": "function"
    },
    {
      "inputs": [],
      "name": "pChainStakeMirror",
      "outputs": [
        {
          "internalType": "contract IPChainStakeMirror",
          "name": "",
          "type": "address"
        }
      ],
      "stateMutability": "view",
      "type": "function"
    },
    {
      "inputs": [],
      "name": "pChainStakeMirrorEnabled",
      "outputs": [
        {
          "internalType": "bool",
          "name": "",
          "type": "bool"
        }
      ],
      "stateMutability": "view",
      "type": "function"
    },
    {
      "inputs": [],
      "name": "productionMode",
      "outputs": [
        {
          "internalType": "bool",
          "name": "",
          "type": "bool"
        }
      ],
      "stateMutability": "view",
      "type": "function"
    },
    {
      "inputs": [
        {
          "internalType": "uint24",
          "name": "_wNatCapPPM",
          "type": "uint24"
        }
      ],
      "name": "setWNatCapPPM",
      "outputs": [],
      "stateMutability": "nonpayable",
      "type": "function"
    },
    {
      "inputs": [],
      "name": "signingPolicySignNoRewardsDurationBlocks",
      "outputs": [
        {
          "internalType": "uint64",
          "name": "",
          "type": "uint64"
        }
      ],
      "stateMutability": "view",
      "type": "function"
    },
    {
      "inputs": [],
      "name": "signingPolicySignNonPunishableDurationBlocks",
      "outputs": [
        {
          "internalType": "uint64",
          "name": "",
          "type": "uint64"
        }
      ],
      "stateMutability": "view",
      "type": "function"
    },
    {
      "inputs": [],
      "name": "signingPolicySignNonPunishableDurationSeconds",
      "outputs": [
        {
          "internalType": "uint64",
          "name": "",
          "type": "uint64"
        }
      ],
      "stateMutability": "view",
      "type": "function"
    },
    {
      "inputs": [
        {
          "internalType": "uint256",
          "name": "_x",
          "type": "uint256"
        }
      ],
      "name": "sqrt",
      "outputs": [
        {
          "internalType": "uint128",
          "name": "",
          "type": "uint128"
        }
      ],
      "stateMutability": "pure",
      "type": "function"
    },
    {
      "inputs": [],
      "name": "switchToProductionMode",
      "outputs": [],
      "stateMutability": "nonpayable",
      "type": "function"
    },
    {
      "inputs": [
        {
          "internalType": "bytes4",
          "name": "selector",
          "type": "bytes4"
        }
      ],
      "name": "timelockedCalls",
      "outputs": [
        {
          "internalType": "uint256",
          "name": "allowedAfterTimestamp",
          "type": "uint256"
        },
        {
          "internalType": "bytes",
          "name": "encodedCall",
          "type": "bytes"
        }
      ],
      "stateMutability": "view",
      "type": "function"
    },
    {
      "inputs": [
        {
          "internalType": "bytes32[]",
          "name": "_contractNameHashes",
          "type": "bytes32[]"
        },
        {
          "internalType": "address[]",
          "name": "_contractAddresses",
          "type": "address[]"
        }
      ],
      "name": "updateContractAddresses",
      "outputs": [],
      "stateMutability": "nonpayable",
      "type": "function"
    },
    {
      "inputs": [],
      "name": "voterRegistry",
      "outputs": [
        {
          "internalType": "contract IVoterRegistry",
          "name": "",
          "type": "address"
        }
      ],
      "stateMutability": "view",
      "type": "function"
    },
    {
      "inputs": [],
      "name": "wNat",
      "outputs": [
        {
          "internalType": "contract IWNat",
          "name": "",
          "type": "address"
        }
      ],
      "stateMutability": "view",
      "type": "function"
    },
    {
      "inputs": [],
      "name": "wNatCapPPM",
      "outputs": [
        {
          "internalType": "uint24",
          "name": "",
          "type": "uint24"
        }
      ],
      "stateMutability": "view",
      "type": "function"
    },
    {
      "inputs": [],
      "name": "wNatDelegationFee",
      "outputs": [
        {
          "internalType": "contract IWNatDelegationFee",
          "name": "",
          "type": "address"
        }
      ],
      "stateMutability": "view",
      "type": "function"
    }
  ],
  "bytecode": "0x608060405234801561000f575f5ffd5b506040516128f93803806128f983398101604081905261002e916102de565b84878761003b828261013f565b506100669050817f714f205b2abd25bef1d06a1af944e38c113fe6160375c4e1d6d5cf28848e771955565b50620f42408462ffffff1611156100c45760405162461bcd60e51b815260206004820152601460248201527f5f774e617443617050504d20746f6f206869676800000000000000000000000060448201526064015b60405180910390fd5b600880546001600160401b03948516600160b81b02600160b81b600160f81b031962ffffff909716600160a01b0296909616600160a01b600160f81b031990911617949094179093556009805493831668010000000000000000026001600160801b0319909416919092161791909117905550610371915050565b5f54600160a01b900460ff16156101985760405162461bcd60e51b815260206004820152601460248201527f696e697469616c6973656420213d2066616c736500000000000000000000000060448201526064016100bb565b6001600160a01b0382166101ee5760405162461bcd60e51b815260206004820152601860248201527f676f7665726e616e63652073657474696e6773207a65726f000000000000000060448201526064016100bb565b6001600160a01b0381166102375760405162461bcd60e51b815260206004820152601060248201526f5f676f7665726e616e6365207a65726f60801b60448201526064016100bb565b5f80546001600160a01b038481166001600160a81b031990921691909117600160a01b17909155600180549183166001600160a01b0319909216821790556040519081527f9789733827840833afc031fb2ef9ab6894271f77bad2085687cf4ae5c7bee4db9060200160405180910390a15050565b6001600160a01b03811681146102c0575f5ffd5b50565b80516001600160401b03811681146102d9575f5ffd5b919050565b5f5f5f5f5f5f5f60e0888a0312156102f4575f5ffd5b87516102ff816102ac565b6020890151909750610310816102ac565b6040890151909650610321816102ac565b606089015190955062ffffff81168114610339575f5ffd5b9350610347608089016102c3565b925061035560a089016102c3565b915061036360c089016102c3565b905092959891949750929550565b61257b8061037e5f395ff3fe608060405234801561000f575f5ffd5b50600436106101a1575f3560e01c806387c5ab51116100f3578063b00c0b7611610093578063e17f212e1161006e578063e17f212e146103f8578063ef88bf131461040b578063f5a983831461041e578063faae7fc914610426575f5ffd5b8063b00c0b76146103bf578063be60040e146103d2578063debfda30146103e5575f5ffd5b806396ca1472116100ce57806396ca1472146103705780639dd1018c1461038a5780639edbf007146103a4578063b006b4e3146103b7575f5ffd5b806387c5ab511461031f57806387fd1ba1146103325780639350f57c1461035d575f5ffd5b80635ff270791161015e578063677342ce11610139578063677342ce1461029c57806367fc4029146102c757806374e6310e146102da5780637bf756c9146102fb575f5ffd5b80635ff270791461026457806362354e031461027757806362d9c89a14610289575f5ffd5b80633d7cf608146101a557806348bee227146101ba57806350b1d61b146101e05780635267a15d1461020b5780635aa6e675146102325780635edf75961461023a575b5f5ffd5b6101b86101b3366004611caa565b610439565b005b6101cd6101c8366004611cd7565b6104e6565b6040519081526020015b60405180910390f35b6004546101f3906001600160a01b031681565b6040516001600160a01b0390911681526020016101d7565b7f714f205b2abd25bef1d06a1af944e38c113fe6160375c4e1d6d5cf28848e7719546101f3565b6101f3610ac6565b60085461025090600160a01b900462ffffff1681565b60405162ffffff90911681526020016101d7565b6101b8610272366004611d1d565b610b5f565b5f546101f3906001600160a01b031681565b6007546101f3906001600160a01b031681565b6102af6102aa366004611d44565b610dda565b6040516001600160801b0390911681526020016101d7565b6101b86102d5366004611d1d565b610dea565b6102ed6102e8366004611d1d565b610ec9565b6040516101d7929190611d89565b60075461030f90600160a01b900460ff1681565b60405190151581526020016101d7565b6005546101f3906001600160a01b031681565b600954610345906001600160401b031681565b6040516001600160401b0390911681526020016101d7565b6101cd61036b366004611da9565b610f6b565b60085461034590600160b81b90046001600160401b031681565b60095461034590600160401b90046001600160401b031681565b6008546101f3906001600160a01b031681565b6101b8611225565b6101b86103cd366004611eb7565b611273565b6006546101f3906001600160a01b031681565b61030f6103f3366004611f71565b611352565b5f5461030f90600160a81b900460ff1681565b6101b8610419366004611f8c565b6113d1565b6101b8611535565b6003546101f3906001600160a01b031681565b5f54600160b01b900460ff168061045957505f54600160a81b900460ff16155b156104d9576104666115f9565b620f42408162ffffff1611156104ba5760405162461bcd60e51b81526020600482015260146024820152730beee9cc2e886c2e0a0a09a40e8dede40d0d2ced60631b60448201526064015b60405180910390fd5b6008805462ffffff60a01b1916600160a01b62ffffff84160217905550565b6104e35f3661162f565b50565b6006545f906001600160a01b031633146105385760405162461bcd60e51b81526020600482015260136024820152726f6e6c7920766f74657220726567697374727960681b60448201526064016104b1565b60048054604051632da5f2f960e11b81526001600160a01b0387811693820193909352602481018590525f9290911690635b4be5f2906044015f60405180830381865afa15801561058b573d5f5f3e3d5ffd5b505050506040513d5f823e601f3d908101601f191682016040526105b29190810190611fa8565b6007549091506060906001600160a01b03161561074b5760075460405163a9e7019960e01b81526001600160a01b039091169063a9e70199906105fb9085908890600401612091565b5f60405180830381865afa158015610615573d5f5f3e3d5ffd5b505050506040513d5f823e601f3d908101601f1916820160405261063c91908101906120b2565b90505f5b81518110156107455760065483516001600160a01b0390911690633c5cb76f9085908490811061067257610672612138565b60200260200101516040518263ffffffff1660e01b81526004016106a691906001600160601b031991909116815260200190565b602060405180830381865afa1580156106c1573d5f5f3e3d5ffd5b505050506040513d601f19601f820116820180604052508101906106e5919061214c565b8663ffffffff161061071d5781818151811061070357610703612138565b6020026020010151846107169190612177565b935061073d565b5f82828151811061073057610730612138565b6020026020010181815250505b600101610640565b50610791565b81516001600160401b0381111561076457610764611dde565b60405190808252806020026020018201604052801561078d578160200160208202803683370190505b5090505b600480546040516315f6dfbd60e11b81526001600160a01b0389811693820193909352602481018790525f9283928392911690632bedbf7a90604401602060405180830381865afa1580156107e8573d5f5f3e3d5ffd5b505050506040513d601f19601f8201168201806040525081019061080c919061218a565b600654604051633c5cb76f60e01b81526001600160601b0319606084901b1660048201529192506001600160a01b031690633c5cb76f90602401602060405180830381865afa158015610861573d5f5f3e3d5ffd5b505050506040513d601f19601f82011682018060405250810190610885919061214c565b8863ffffffff16106109bb57600854604051631f2d513560e11b8152600481018990525f916001600160a01b031690633e5aa26a90602401602060405180830381865afa1580156108d8573d5f5f3e3d5ffd5b505050506040513d601f19601f820116820180604052508101906108fc919061214c565b6008549091505f90620f42409061091f90600160a01b900462ffffff16846121a5565b61092991906121bc565b600854604051631257fcdb60e31b81526001600160a01b038681166004830152602482018d90529293509116906392bfe6d890604401602060405180830381865afa15801561097a573d5f5f3e3d5ffd5b505050506040513d601f19601f8201168201806040525081019061099e919061214c565b94506109aa8186611776565b93506109b68489612177565b975050505b60055460405163d700e0cf60e01b81526001600160a01b038b8116600483015263ffffffff8b1660248301525f92169063d700e0cf90604401602060405180830381865afa158015610a0f573d5f5f3e3d5ffd5b505050506040513d601f19601f82011682018060405250810190610a3391906121db565b9050610a3e87611788565b6001600160801b03169650610a5287611788565b610a65906001600160801b0316886121a5565b96508863ffffffff168a6001600160a01b03167fc49a5cabcc0776ace8cfd024e155bc303ee5e492b29d59f1ff7dbafa0b34a04b848488888c8c604051610ab1969594939291906121fc565b60405180910390a35050505050509392505050565b5f8054600160a81b900460ff16610ae757506001546001600160a01b031690565b5f5f9054906101000a90046001600160a01b03166001600160a01b031663732524946040518163ffffffff1660e01b8152600401602060405180830381865afa158015610b36573d5f5f3e3d5ffd5b505050506040513d601f19601f82011682018060405250810190610b5a919061218a565b905090565b610b6833611352565b610ba45760405162461bcd60e51b815260206004820152600d60248201526c37b7363c9032bc32b1baba37b960991b60448201526064016104b1565b6001600160e01b031981165f9081526002602052604081208054909103610c0d5760405162461bcd60e51b815260206004820152601a60248201527f74696d656c6f636b3a20696e76616c69642073656c6563746f7200000000000060448201526064016104b1565b8054421015610c5e5760405162461bcd60e51b815260206004820152601960248201527f74696d656c6f636b3a206e6f7420616c6c6f776564207965740000000000000060448201526064016104b1565b5f816001018054610c6e90612277565b80601f0160208091040260200160405190810160405280929190818152602001828054610c9a90612277565b8015610ce55780601f10610cbc57610100808354040283529160200191610ce5565b820191905f5260205f20905b815481529060010190602001808311610cc857829003601f168201915b505050506001600160e01b031985165f9081526002602052604081208181559293509050610d166001830182611c4e565b50505f805460ff60b01b1916600160b01b1781556040513090610d3a9084906122af565b5f604051808303815f865af19150503d805f8114610d73576040519150601f19603f3d011682016040523d82523d5f602084013e610d78565b606091505b50505f805460ff60b01b19169055604080516001600160e01b0319871681524260208201529192507fa7326b57fc9cfe267aaea5e7f0b01757154d265620a0585819416ee9ddd2c438910160405180910390a1610dd481611905565b50505050565b5f610de482611788565b92915050565b610df2611921565b6001600160e01b031981165f908152600260205260408120549003610e595760405162461bcd60e51b815260206004820152601a60248201527f74696d656c6f636b3a20696e76616c69642073656c6563746f7200000000000060448201526064016104b1565b604080516001600160e01b0319831681524260208201527f7735b2391c38a81419c513e30ca578db7158eadd7101511b23e221c654d19cf8910160405180910390a16001600160e01b031981165f90815260026020526040812081815590610ec46001830182611c4e565b505050565b60026020525f908152604090208054600182018054919291610eea90612277565b80601f0160208091040260200160405190810160405280929190818152602001828054610f1690612277565b8015610f615780601f10610f3857610100808354040283529160200191610f61565b820191905f5260205f20905b815481529060010190602001808311610f4457829003601f168201915b5050505050905082565b6003545f9081908190819081906001600160a01b031663d2e9ad71610f918960016122c5565b6040516001600160e01b031960e084901b16815262ffffff9091166004820152602401608060405180830381865afa158015610fcf573d5f5f3e3d5ffd5b505050506040513d601f19601f82011682018060405250810190610ff391906122f6565b9350935093509350816001600160401b03165f036110535760405162461bcd60e51b815260206004820152601d60248201527f7369676e696e6720706f6c696379206e6f74207369676e65642079657400000060448201526064016104b1565b600854600160b81b90046001600160401b03166110708584612347565b6001600160401b03161161108a575f945050505050610de4565b6009545f906110a2906001600160401b031685612366565b9050806001600160401b0316826001600160401b0316116110ca575f95505050505050610de4565b6003545f906001600160a01b031663dac4319d6110e88b60016122c5565b6040516001600160e01b031960e084901b16815262ffffff90911660048201526001600160a01b038b1660248201526044016040805180830381865afa158015611134573d5f5f3e3d5ffd5b505050506040513d601f19601f820116820180604052508101906111589190612385565b915050806001600160401b03165f0361116e5750815b816001600160401b0316816001600160401b031611611195575f9650505050505050610de4565b5f6111a08383612347565b6009546001600160401b039182169250600160401b90041681106111d057620f4240975050505050505050610de4565b6009545f90600160401b90046001600160401b03166111f2620f4240846121a5565b6111fc91906121bc565b9050620f424061120c82806121a5565b61121691906121bc565b9b9a5050505050505050505050565b5f54600160b01b900460ff168061124557505f54600160a81b900460ff16155b15611267576112526115f9565b6007805460ff60a01b1916600160a01b179055565b6112715f3661162f565b565b7f714f205b2abd25bef1d06a1af944e38c113fe6160375c4e1d6d5cf28848e7719546001600160a01b0316336001600160a01b0316146112ec5760405162461bcd60e51b815260206004820152601460248201527337b7363c9030b2323932b9b9903ab83230ba32b960611b60448201526064016104b1565b61134461132083836040518060400160405280600e81526020016d20b2323932b9b9aab83230ba32b960911b81525061197b565b7f714f205b2abd25bef1d06a1af944e38c113fe6160375c4e1d6d5cf28848e771955565b61134e8282611a43565b5050565b5f8054600160a01b900460ff168015610de457505f54604051630debfda360e41b81526001600160a01b0384811660048301529091169063debfda3090602401602060405180830381865afa1580156113ad573d5f5f3e3d5ffd5b505050506040513d601f19601f82011682018060405250810190610de491906123b6565b5f54600160a01b900460ff16156114215760405162461bcd60e51b8152602060048201526014602482015273696e697469616c6973656420213d2066616c736560601b60448201526064016104b1565b6001600160a01b0382166114775760405162461bcd60e51b815260206004820152601860248201527f676f7665726e616e63652073657474696e6773207a65726f000000000000000060448201526064016104b1565b6001600160a01b0381166114c05760405162461bcd60e51b815260206004820152601060248201526f5f676f7665726e616e6365207a65726f60801b60448201526064016104b1565b5f80546001600160a01b038481166001600160a81b031990921691909117600160a01b17909155600180549183166001600160a01b0319909216821790556040519081527f9789733827840833afc031fb2ef9ab6894271f77bad2085687cf4ae5c7bee4db9060200160405180910390a15050565b61153d611921565b5f54600160a81b900460ff16156115965760405162461bcd60e51b815260206004820152601a60248201527f616c726561647920696e2070726f64756374696f6e206d6f646500000000000060448201526064016104b1565b600180546001600160a01b03191690555f8054600160a81b60ff60a81b198216179091556040516001600160a01b0390911681527f83af113638b5422f9e977cebc0aaf0eaf2188eb9a8baae7f9d46c42b33a1560c9060200160405180910390a1565b5f54600160b01b900460ff161561162757333014611619576116196123d5565b5f805460ff60b01b19169055565b611271611921565b611637611921565b5f805460408051636221a54b60e01b81529051853593926001600160a01b031691636221a54b9160048083019260209291908290030181865afa158015611680573d5f5f3e3d5ffd5b505050506040513d601f19601f820116820180604052508101906116a4919061214c565b90505f6116b18242612177565b9050604051806040016040528082815260200186868080601f0160208091040260200160405190810160405280939291908181526020018383808284375f9201829052509390945250506001600160e01b0319861681526002602090815260409091208351815590830151909150600182019061172e9082612434565b509050507fed948300a3694aa01d4a6b258bfd664350193d770c0b51f8387277f6d83ea3b68382878760405161176794939291906124ee565b60405180910390a15050505050565b5f8282188284100282185b9392505050565b5f815f0361179757505f919050565b816001600160801b82106117b05760809190911c9060401b5b600160401b82106117c65760409190911c9060201b5b64010000000082106117dd5760209190911c9060101b5b6201000082106117f25760109190911c9060081b5b61010082106118065760089190911c9060041b5b601082106118195760049190911c9060021b5b600482106118255760011b5b600161183182866121bc565b61183b9083612177565b901c9050600161184b82866121bc565b6118559083612177565b901c9050600161186582866121bc565b61186f9083612177565b901c9050600161187f82866121bc565b6118899083612177565b901c9050600161189982866121bc565b6118a39083612177565b901c905060016118b382866121bc565b6118bd9083612177565b901c905060016118cd82866121bc565b6118d79083612177565b901c90505f6118e682866121bc565b90508082106118f557806118f7565b815b95945050505050565b919050565b3d604051818101604052815f823e821561191d578181f35b8181fd5b611929610ac6565b6001600160a01b0316336001600160a01b0316146112715760405162461bcd60e51b815260206004820152600f60248201526e6f6e6c7920676f7665726e616e636560881b60448201526064016104b1565b5f5f8260405160200161198e9190612533565b60408051601f19818403018152919052805160209091012090505f805b86518110156119fd578681815181106119c6576119c6612138565b602002602001015183036119f5578581815181106119e6576119e6612138565b602002602001015191506119fd565b6001016119ab565b506001600160a01b0381166118f75760405162461bcd60e51b815260206004820152600c60248201526b61646472657373207a65726f60a01b60448201526064016104b1565b611a79828260405180604001604052806013815260200172233630b932a9bcb9ba32b6b9a6b0b730b3b2b960691b81525061197b565b60035f6101000a8154816001600160a01b0302191690836001600160a01b03160217905550611ace82826040518060400160405280600d81526020016c22b73a34ba3ca6b0b730b3b2b960991b81525061197b565b60045f6101000a8154816001600160a01b0302191690836001600160a01b03160217905550611b27828260405180604001604052806011815260200170574e617444656c65676174696f6e46656560781b81525061197b565b60055f6101000a8154816001600160a01b0302191690836001600160a01b03160217905550611b7c82826040518060400160405280600d81526020016c566f746572526567697374727960981b81525061197b565b600680546001600160a01b0319166001600160a01b0392909216919091179055600754600160a01b900460ff1615611c0357611be28282604051806040016040528060118152602001702821b430b4b729ba30b5b2a6b4b93937b960791b81525061197b565b600780546001600160a01b0319166001600160a01b03929092169190911790555b611c2a82826040518060400160405280600481526020016315d3985d60e21b81525061197b565b600880546001600160a01b0319166001600160a01b03929092169190911790555050565b508054611c5a90612277565b5f825580601f10611c69575050565b601f0160209004905f5260205f20908101906104e391905b80821115611c94575f8155600101611c81565b5090565b803562ffffff81168114611900575f5ffd5b5f60208284031215611cba575f5ffd5b61178182611c98565b6001600160a01b03811681146104e3575f5ffd5b5f5f5f60608486031215611ce9575f5ffd5b8335611cf481611cc3565b9250602084013563ffffffff81168114611d0c575f5ffd5b929592945050506040919091013590565b5f60208284031215611d2d575f5ffd5b81356001600160e01b031981168114611781575f5ffd5b5f60208284031215611d54575f5ffd5b5035919050565b5f81518084528060208401602086015e5f602082860101526020601f19601f83011685010191505092915050565b828152604060208201525f611da16040830184611d5b565b949350505050565b5f5f60408385031215611dba575f5ffd5b611dc383611c98565b91506020830135611dd381611cc3565b809150509250929050565b634e487b7160e01b5f52604160045260245ffd5b604051601f8201601f191681016001600160401b0381118282101715611e1a57611e1a611dde565b604052919050565b5f6001600160401b03821115611e3a57611e3a611dde565b5060051b60200190565b5f82601f830112611e53575f5ffd5b8135611e66611e6182611e22565b611df2565b8082825260208201915060208360051b860101925085831115611e87575f5ffd5b602085015b83811015611ead578035611e9f81611cc3565b835260209283019201611e8c565b5095945050505050565b5f5f60408385031215611ec8575f5ffd5b82356001600160401b03811115611edd575f5ffd5b8301601f81018513611eed575f5ffd5b8035611efb611e6182611e22565b8082825260208201915060208360051b850101925087831115611f1c575f5ffd5b6020840193505b82841015611f3e578335825260209384019390910190611f23565b945050505060208301356001600160401b03811115611f5b575f5ffd5b611f6785828601611e44565b9150509250929050565b5f60208284031215611f81575f5ffd5b813561178181611cc3565b5f5f60408385031215611f9d575f5ffd5b8235611dc381611cc3565b5f60208284031215611fb8575f5ffd5b81516001600160401b03811115611fcd575f5ffd5b8201601f81018413611fdd575f5ffd5b8051611feb611e6182611e22565b8082825260208201915060208360051b85010192508683111561200c575f5ffd5b6020840193505b828410156120435783516001600160601b031981168114612032575f5ffd5b825260209384019390910190612013565b9695505050505050565b5f8151808452602084019350602083015f5b828110156120875781516001600160601b03191686526020958601959091019060010161205f565b5093949350505050565b604081525f6120a3604083018561204d565b90508260208301529392505050565b5f602082840312156120c2575f5ffd5b81516001600160401b038111156120d7575f5ffd5b8201601f810184136120e7575f5ffd5b80516120f5611e6182611e22565b8082825260208201915060208360051b850101925086831115612116575f5ffd5b6020840193505b8284101561204357835182526020938401939091019061211d565b634e487b7160e01b5f52603260045260245ffd5b5f6020828403121561215c575f5ffd5b5051919050565b634e487b7160e01b5f52601160045260245ffd5b80820180821115610de457610de4612163565b5f6020828403121561219a575f5ffd5b815161178181611cc3565b8082028115828204841417610de457610de4612163565b5f826121d657634e487b7160e01b5f52601260045260245ffd5b500490565b5f602082840312156121eb575f5ffd5b815161ffff81168114611781575f5ffd5b60018060a01b038716815261ffff8616602082015284604082015283606082015260c060808201525f61223260c083018561204d565b82810360a0840152835180825260208086019201905f5b81811015612267578351835260209384019390920191600101612249565b50909a9950505050505050505050565b600181811c9082168061228b57607f821691505b6020821081036122a957634e487b7160e01b5f52602260045260245ffd5b50919050565b5f82518060208501845e5f920191825250919050565b62ffffff8181168382160190811115610de457610de4612163565b80516001600160401b0381168114611900575f5ffd5b5f5f5f5f60808587031215612309575f5ffd5b612312856122e0565b9350612320602086016122e0565b925061232e604086016122e0565b915061233c606086016122e0565b905092959194509250565b6001600160401b038281168282160390811115610de457610de4612163565b6001600160401b038181168382160190811115610de457610de4612163565b5f5f60408385031215612396575f5ffd5b61239f836122e0565b91506123ad602084016122e0565b90509250929050565b5f602082840312156123c6575f5ffd5b81518015158114611781575f5ffd5b634e487b7160e01b5f52600160045260245ffd5b601f821115610ec457805f5260205f20601f840160051c8101602085101561240e5750805b601f840160051c820191505b8181101561242d575f815560010161241a565b5050505050565b81516001600160401b0381111561244d5761244d611dde565b6124618161245b8454612277565b846123e9565b6020601f821160018114612493575f831561247c5750848201515b5f19600385901b1c1916600184901b17845561242d565b5f84815260208120601f198516915b828110156124c257878501518255602094850194600190920191016124a2565b50848210156124df57868401515f19600387901b60f8161c191681555b50505050600190811b01905550565b63ffffffff60e01b8516815283602082015260606040820152816060820152818360808301375f818301608090810191909152601f909201601f191601019392505050565b602081525f6117816020830184611d5b56fea2646970667358221220fefec9a586ff2be3f30cc5ab073463a7af6ee9d6ec1b588427ff8d6f91d4ff4364736f6c634300081e0033",
  "linkReferences": {},
  "deployedLinkReferences": {}
}