{
  "_format": "hh-sol-artifact-1",
  "contractName": "VoterPreRegistry",
  "sourceName": "contracts/protocol/implementation/VoterPreRegistry.sol",
  "abi": [
    {
      "inputs": [
        {
          "internalType": "address",
          "name": "_addressUpdater",
          "type": "address"
        }
      ],
      "stateMutability": "nonpayable",
      "type": "constructor"
    },
    {
      "inputs": [],
      "name": "ECDSAInvalidSignature",
      "type": "error"
    },
    {
      "inputs": [
        {
          "internalType": "uint256",
          "name": "length",
          "type": "uint256"
        }
      ],
      "name": "ECDSAInvalidSignatureLength",
      "type": "error"
    },
    {
      "inputs": [
        {
          "internalType": "bytes32",
          "name": "s",
          "type": "bytes32"
        }
      ],
      "name": "ECDSAInvalidSignatureS",
      "type": "error"
    },
    {
      "anonymous": false,
      "inputs": [
        {
          "indexed": true,
          "internalType": "address",
          "name": "voter",
          "type": "address"
        },
        {
          "indexed": true,
          "internalType": "uint32",
          "name": "rewardEpochId",
          "type": "uint32"
        }
      ],
      "name": "VoterPreRegistered",
      "type": "event"
    },
    {
      "anonymous": false,
      "inputs": [
        {
          "indexed": true,
          "internalType": "address",
          "name": "voter",
          "type": "address"
        },
        {
          "indexed": true,
          "internalType": "uint32",
          "name": "rewardEpochId",
          "type": "uint32"
        }
      ],
      "name": "VoterRegistrationFailed",
      "type": "event"
    },
    {
      "inputs": [],
      "name": "entityManager",
      "outputs": [
        {
          "internalType": "contract IIEntityManager",
          "name": "",
          "type": "address"
        }
      ],
      "stateMutability": "view",
      "type": "function"
    },
    {
      "inputs": [],
      "name": "flareSystemsManager",
      "outputs": [
        {
          "internalType": "contract IIFlareSystemsManager",
          "name": "",
          "type": "address"
        }
      ],
      "stateMutability": "view",
      "type": "function"
    },
    {
      "inputs": [],
      "name": "getAddressUpdater",
      "outputs": [
        {
          "internalType": "address",
          "name": "_addressUpdater",
          "type": "address"
        }
      ],
      "stateMutability": "view",
      "type": "function"
    },
    {
      "inputs": [
        {
          "internalType": "uint256",
          "name": "_rewardEpochId",
          "type": "uint256"
        }
      ],
      "name": "getPreRegisteredVoters",
      "outputs": [
        {
          "internalType": "address[]",
          "name": "_voters",
          "type": "address[]"
        }
      ],
      "stateMutability": "view",
      "type": "function"
    },
    {
      "inputs": [
        {
          "internalType": "uint256",
          "name": "_rewardEpochId",
          "type": "uint256"
        },
        {
          "internalType": "address",
          "name": "_voter",
          "type": "address"
        }
      ],
      "name": "getVoterSignature",
      "outputs": [
        {
          "components": [
            {
              "internalType": "uint8",
              "name": "v",
              "type": "uint8"
            },
            {
              "internalType": "bytes32",
              "name": "r",
              "type": "bytes32"
            },
            {
              "internalType": "bytes32",
              "name": "s",
              "type": "bytes32"
            }
          ],
          "internalType": "struct Signature",
          "name": "",
          "type": "tuple"
        }
      ],
      "stateMutability": "view",
      "type": "function"
    },
    {
      "inputs": [
        {
          "internalType": "uint256",
          "name": "_rewardEpochId",
          "type": "uint256"
        },
        {
          "internalType": "address",
          "name": "_voter",
          "type": "address"
        }
      ],
      "name": "isVoterPreRegistered",
      "outputs": [
        {
          "internalType": "bool",
          "name": "",
          "type": "bool"
        }
      ],
      "stateMutability": "view",
      "type": "function"
    },
    {
      "inputs": [
        {
          "internalType": "address",
          "name": "_voter",
          "type": "address"
        },
        {
          "components": [
            {
              "internalType": "uint8",
              "name": "v",
              "type": "uint8"
            },
            {
              "internalType": "bytes32",
              "name": "r",
              "type": "bytes32"
            },
            {
              "internalType": "bytes32",
              "name": "s",
              "type": "bytes32"
            }
          ],
          "internalType": "struct Signature",
          "name": "_signature",
          "type": "tuple"
        }
      ],
      "name": "preRegisterVoter",
      "outputs": [],
      "stateMutability": "nonpayable",
      "type": "function"
    },
    {
      "inputs": [
        {
          "internalType": "uint24",
          "name": "_rewardEpochId",
          "type": "uint24"
        }
      ],
      "name": "triggerVoterRegistration",
      "outputs": [],
      "stateMutability": "nonpayable",
      "type": "function"
    },
    {
      "inputs": [
        {
          "internalType": "bytes32[]",
          "name": "_contractNameHashes",
          "type": "bytes32[]"
        },
        {
          "internalType": "address[]",
          "name": "_contractAddresses",
          "type": "address[]"
        }
      ],
      "name": "updateContractAddresses",
      "outputs": [],
      "stateMutability": "nonpayable",
      "type": "function"
    },
    {
      "inputs": [],
      "name": "voterRegistry",
      "outputs": [
        {
          "internalType": "contract IIVoterRegistry",
          "name": "",
          "type": "address"
        }
      ],
      "stateMutability": "view",
      "type": "function"
    }
  ],
  "bytecode": "0x6080604052348015600e575f5ffd5b50604051611439380380611439833981016040819052602b916059565b806053817f714f205b2abd25bef1d06a1af944e38c113fe6160375c4e1d6d5cf28848e771955565b50506084565b5f602082840312156068575f5ffd5b81516001600160a01b0381168114607d575f5ffd5b9392505050565b6113a8806100915f395ff3fe608060405234801561000f575f5ffd5b506004361061009b575f3560e01c8063b00c0b7611610063578063b00c0b7614610185578063be60040e1461019a578063ea8eb77d146101ad578063f707f612146101c0578063faae7fc9146101d3575f5ffd5b8063010f079d1461009f5780633beabf52146100c857806350b1d61b146100e85780635267a15d14610113578063980410461461013a575b5f5ffd5b6100b26100ad366004610ec4565b6101e5565b6040516100bf9190610edb565b60405180910390f35b6100db6100d6366004610f3d565b6102b3565b6040516100bf9190610f6b565b6001546100fb906001600160a01b031681565b6040516001600160a01b0390911681526020016100bf565b7f714f205b2abd25bef1d06a1af944e38c113fe6160375c4e1d6d5cf28848e7719546100fb565b610175610148366004610f3d565b5f8281526003602090815260408083206001600160a01b0385168452600101909152902054151592915050565b60405190151581526020016100bf565b61019861019336600461106a565b6103c8565b005b6002546100fb906001600160a01b031681565b6101986101bb366004611126565b6104a7565b6101986101ce366004611174565b6109a6565b5f546100fb906001600160a01b031681565b5f8181526003602052604090208054606091908067ffffffffffffffff81111561021157610211610f8f565b60405190808252806020026020018201604052801561023a578160200160208202803683370190505b5092505f5b818110156102ab57825f01818154811061025b5761025b61118f565b5f91825260209091206003909102015484516001600160a01b039091169085908390811061028b5761028b61118f565b6001600160a01b039092166020928302919091019091015260010161023f565b505050919050565b6102d760405180606001604052805f60ff1681526020015f81526020015f81525090565b5f8381526003602090815260408083206001600160a01b0386168452600101909152812054908190036103515760405162461bcd60e51b815260206004820152601860248201527f766f746572206e6f74207072652d72656769737465726564000000000000000060448201526064015b60405180910390fd5b5f8481526003602052604081206103696001846111b7565b815481106103795761037961118f565b905f5260205f20906003020190506040518060600160405280825f0160149054906101000a900460ff1660ff168152602001826001015481526020018260020154815250925050505b92915050565b7f714f205b2abd25bef1d06a1af944e38c113fe6160375c4e1d6d5cf28848e7719546001600160a01b0316336001600160a01b0316146104415760405162461bcd60e51b815260206004820152601460248201527337b7363c9030b2323932b9b9903ab83230ba32b960611b6044820152606401610348565b61049961047583836040518060400160405280600e81526020016d20b2323932b9b9aab83230ba32b960911b815250610b42565b7f714f205b2abd25bef1d06a1af944e38c113fe6160375c4e1d6d5cf28848e771955565b6104a38282610c15565b5050565b5f5f5f9054906101000a90046001600160a01b03166001600160a01b031663705626976040518163ffffffff1660e01b8152600401602060405180830381865afa1580156104f7573d5f5f3e3d5ffd5b505050506040513d601f19601f8201168201806040525081019061051b91906111ca565b6105269060016111e5565b5f80546040516347c7cf9d60e11b815262ffffff8416600482015292935090916001600160a01b0390911690638f8f9f3a90602401608060405180830381865afa158015610576573d5f5f3e3d5ffd5b505050506040513d601f19601f8201168201806040525081019061059a919061121c565b67ffffffffffffffff169350505050805f146106045760405162461bcd60e51b815260206004820152602360248201527f7072652d726567697374726174696f6e206e6f74206f70656e656420616e796d6044820152626f726560e81b6064820152608401610348565b6002546001600160a01b0316634f5a99688561062160018661126d565b6040516001600160e01b031960e085901b1681526001600160a01b03909216600483015262ffffff166024820152604401602060405180830381865afa15801561066d573d5f5f3e3d5ffd5b505050506040513d601f19601f820116820180604052508101906106919190611288565b6106dd5760405162461bcd60e51b815260206004820152601e60248201527f766f7465722063757272656e746c79206e6f74207265676973746572656400006044820152606401610348565b604080514660208083019190915262ffffff8516828401526001600160a01b03871660608084019190915283518084039091018152608090920190925280519101207f19457468657265756d205369676e6564204d6573736167653a0a3332000000005f908152601c829052603c812090505f6107708261076160208901896112a7565b88602001358960400135610d18565b60015460405163385e3b1360e21b81526001600160a01b0380841660048301524360248301529293505f929091169063e178ec4c90604401602060405180830381865afa1580156107c3573d5f5f3e3d5ffd5b505050506040513d601f19601f820116820180604052508101906107e791906112c7565b9050876001600160a01b0316816001600160a01b03161461083e5760405162461bcd60e51b8152602060048201526011602482015270696e76616c6964207369676e617475726560781b6044820152606401610348565b62ffffff86165f9081526003602090815260408083206001600160a01b038c168452600101909152812054908190036108cd5762ffffff87165f908152600360205260409020546108909060016112e2565b62ffffff88165f9081526003602081815260408084206001600160a01b038f16855260018082018452918520869055929091528154018155905290505b62ffffff87165f9081526003602052604081206108eb6001846111b7565b815481106108fb576108fb61118f565b5f9182526020918290206003919091020180546001600160a01b0319166001600160a01b038d161781559150610933908a018a6112a7565b815460ff91909116600160a01b0260ff60a01b19909116178155602089013560018201556040808a013560028301555162ffffff8916906001600160a01b038c16907f9bcf7a79c8d48fb65a011b7592d7f121a7ef2a70eada07c2c1f2281fc817db2b905f90a350505050505050505050565b5f546001600160a01b031633146109ff5760405162461bcd60e51b815260206004820152601a60248201527f6f6e6c7920666c6172652073797374656d73206d616e616765720000000000006044820152606401610348565b62ffffff81165f908152600360205260408120905b8154811015610b3d575f828281548110610a3057610a3061118f565b5f91825260209182902060408051608081018252600390930290910180546001600160a01b0380821680865260ff600160a01b909304831686880190815260018501548787019081526002958601546060808a019182529654885197880189529251909516865251978501979097529151838501529251638f7d095760e01b81529395509390911692638f7d095792610acc92906004016112f5565b5f604051808303815f87803b158015610ae3575f5ffd5b505af1925050508015610af4575060015b610b3457805160405162ffffff8616916001600160a01b0316907f037b39a9e9298fb9cb53d6407b7d261b08f0fb754074e9d2d2096618ee473f54905f90a35b50600101610a14565b505050565b5f5f82604051602001610b559190611329565b60408051601f19818403018152919052805160209091012090505f805b8651811015610bc457868181518110610b8d57610b8d61118f565b60200260200101518303610bbc57858181518110610bad57610bad61118f565b60200260200101519150610bc4565b600101610b72565b506001600160a01b038116610c0a5760405162461bcd60e51b815260206004820152600c60248201526b61646472657373207a65726f60a01b6044820152606401610348565b9150505b9392505050565b610c4582826040518060400160405280600d81526020016c566f746572526567697374727960981b815250610b42565b60025f6101000a8154816001600160a01b0302191690836001600160a01b03160217905550610ca0828260405180604001604052806013815260200172233630b932a9bcb9ba32b6b9a6b0b730b3b2b960691b815250610b42565b5f5f6101000a8154816001600160a01b0302191690836001600160a01b03160217905550610cf482826040518060400160405280600d81526020016c22b73a34ba3ca6b0b730b3b2b960991b815250610b42565b600180546001600160a01b0319166001600160a01b03929092169190911790555050565b5f5f5f5f610d2888888888610d44565b925092509250610d388282610e0c565b50909695505050505050565b5f80807f7fffffffffffffffffffffffffffffff5d576e7357a4501ddfe92f46681b20a0841115610d7d57505f91506003905082610e02565b604080515f808252602082018084528a905260ff891692820192909252606081018790526080810186905260019060a0016020604051602081039080840390855afa158015610dce573d5f5f3e3d5ffd5b5050604051601f1901519150506001600160a01b038116610df957505f925060019150829050610e02565b92505f91508190505b9450945094915050565b5f826003811115610e1f57610e1f61135e565b03610e28575050565b6001826003811115610e3c57610e3c61135e565b03610e5a5760405163f645eedf60e01b815260040160405180910390fd5b6002826003811115610e6e57610e6e61135e565b03610e8f5760405163fce698f760e01b815260048101829052602401610348565b6003826003811115610ea357610ea361135e565b036104a3576040516335e2f38360e21b815260048101829052602401610348565b5f60208284031215610ed4575f5ffd5b5035919050565b602080825282518282018190525f918401906040840190835b81811015610f1b5783516001600160a01b0316835260209384019390920191600101610ef4565b509095945050505050565b6001600160a01b0381168114610f3a575f5ffd5b50565b5f5f60408385031215610f4e575f5ffd5b823591506020830135610f6081610f26565b809150509250929050565b815160ff1681526020808301519082015260408083015190820152606081016103c2565b634e487b7160e01b5f52604160045260245ffd5b604051601f8201601f1916810167ffffffffffffffff81118282101715610fcc57610fcc610f8f565b604052919050565b5f67ffffffffffffffff821115610fed57610fed610f8f565b5060051b60200190565b5f82601f830112611006575f5ffd5b813561101961101482610fd4565b610fa3565b8082825260208201915060208360051b86010192508583111561103a575f5ffd5b602085015b8381101561106057803561105281610f26565b83526020928301920161103f565b5095945050505050565b5f5f6040838503121561107b575f5ffd5b823567ffffffffffffffff811115611091575f5ffd5b8301601f810185136110a1575f5ffd5b80356110af61101482610fd4565b8082825260208201915060208360051b8501019250878311156110d0575f5ffd5b6020840193505b828410156110f25783358252602093840193909101906110d7565b9450505050602083013567ffffffffffffffff811115611110575f5ffd5b61111c85828601610ff7565b9150509250929050565b5f5f8284036080811215611138575f5ffd5b833561114381610f26565b92506060601f1982011215611156575f5ffd5b506020830190509250929050565b62ffffff81168114610f3a575f5ffd5b5f60208284031215611184575f5ffd5b8135610c0e81611164565b634e487b7160e01b5f52603260045260245ffd5b634e487b7160e01b5f52601160045260245ffd5b818103818111156103c2576103c26111a3565b5f602082840312156111da575f5ffd5b8151610c0e81611164565b62ffffff81811683821601908111156103c2576103c26111a3565b805167ffffffffffffffff81168114611217575f5ffd5b919050565b5f5f5f5f6080858703121561122f575f5ffd5b61123885611200565b935061124660208601611200565b925061125460408601611200565b915061126260608601611200565b905092959194509250565b62ffffff82811682821603908111156103c2576103c26111a3565b5f60208284031215611298575f5ffd5b81518015158114610c0e575f5ffd5b5f602082840312156112b7575f5ffd5b813560ff81168114610c0e575f5ffd5b5f602082840312156112d7575f5ffd5b8151610c0e81610f26565b808201808211156103c2576103c26111a3565b6001600160a01b038316815260808101610c0e6020830184805160ff16825260208082015190830152604090810151910152565b602081525f82518060208401528060208501604085015e5f604082850101526040601f19601f83011684010191505092915050565b634e487b7160e01b5f52602160045260245ffdfea26469706673582212202b6778807348dac4f8cec4b6202590676e0baf06d4b7f50fa43fb9d637ec4a3c64736f6c634300081e0033",
  "linkReferences": {},
  "deployedLinkReferences": {}
}