{
  "_format": "hh-sol-artifact-1",
  "contractName": "VoterPreRegistry",
  "sourceName": "contracts/protocol/implementation/VoterPreRegistry.sol",
  "abi": [
    {
      "inputs": [
        {
          "internalType": "address",
          "name": "_addressUpdater",
          "type": "address"
        }
      ],
      "stateMutability": "nonpayable",
      "type": "constructor"
    },
    {
      "inputs": [],
      "name": "ECDSAInvalidSignature",
      "type": "error"
    },
    {
      "inputs": [
        {
          "internalType": "uint256",
          "name": "length",
          "type": "uint256"
        }
      ],
      "name": "ECDSAInvalidSignatureLength",
      "type": "error"
    },
    {
      "inputs": [
        {
          "internalType": "bytes32",
          "name": "s",
          "type": "bytes32"
        }
      ],
      "name": "ECDSAInvalidSignatureS",
      "type": "error"
    },
    {
      "anonymous": false,
      "inputs": [
        {
          "indexed": true,
          "internalType": "address",
          "name": "voter",
          "type": "address"
        },
        {
          "indexed": true,
          "internalType": "uint256",
          "name": "rewardEpochId",
          "type": "uint256"
        }
      ],
      "name": "VoterPreRegistered",
      "type": "event"
    },
    {
      "anonymous": false,
      "inputs": [
        {
          "indexed": true,
          "internalType": "address",
          "name": "voter",
          "type": "address"
        },
        {
          "indexed": true,
          "internalType": "uint256",
          "name": "rewardEpochId",
          "type": "uint256"
        }
      ],
      "name": "VoterRegistrationFailed",
      "type": "event"
    },
    {
      "inputs": [],
      "name": "entityManager",
      "outputs": [
        {
          "internalType": "contract IIEntityManager",
          "name": "",
          "type": "address"
        }
      ],
      "stateMutability": "view",
      "type": "function"
    },
    {
      "inputs": [],
      "name": "flareSystemsManager",
      "outputs": [
        {
          "internalType": "contract IIFlareSystemsManager",
          "name": "",
          "type": "address"
        }
      ],
      "stateMutability": "view",
      "type": "function"
    },
    {
      "inputs": [],
      "name": "getAddressUpdater",
      "outputs": [
        {
          "internalType": "address",
          "name": "_addressUpdater",
          "type": "address"
        }
      ],
      "stateMutability": "view",
      "type": "function"
    },
    {
      "inputs": [
        {
          "internalType": "uint24",
          "name": "_rewardEpochId",
          "type": "uint24"
        }
      ],
      "name": "getPreRegisteredVoters",
      "outputs": [
        {
          "internalType": "address[]",
          "name": "",
          "type": "address[]"
        }
      ],
      "stateMutability": "view",
      "type": "function"
    },
    {
      "inputs": [
        {
          "internalType": "uint24",
          "name": "_rewardEpochId",
          "type": "uint24"
        },
        {
          "internalType": "address",
          "name": "_voter",
          "type": "address"
        }
      ],
      "name": "isVoterPreRegistered",
      "outputs": [
        {
          "internalType": "bool",
          "name": "",
          "type": "bool"
        }
      ],
      "stateMutability": "view",
      "type": "function"
    },
    {
      "inputs": [
        {
          "internalType": "address",
          "name": "_voter",
          "type": "address"
        },
        {
          "components": [
            {
              "internalType": "uint8",
              "name": "v",
              "type": "uint8"
            },
            {
              "internalType": "bytes32",
              "name": "r",
              "type": "bytes32"
            },
            {
              "internalType": "bytes32",
              "name": "s",
              "type": "bytes32"
            }
          ],
          "internalType": "struct IVoterRegistry.Signature",
          "name": "_signature",
          "type": "tuple"
        }
      ],
      "name": "preRegisterVoter",
      "outputs": [],
      "stateMutability": "nonpayable",
      "type": "function"
    },
    {
      "inputs": [
        {
          "internalType": "uint24",
          "name": "_rewardEpochId",
          "type": "uint24"
        }
      ],
      "name": "triggerVoterRegistration",
      "outputs": [],
      "stateMutability": "nonpayable",
      "type": "function"
    },
    {
      "inputs": [
        {
          "internalType": "bytes32[]",
          "name": "_contractNameHashes",
          "type": "bytes32[]"
        },
        {
          "internalType": "address[]",
          "name": "_contractAddresses",
          "type": "address[]"
        }
      ],
      "name": "updateContractAddresses",
      "outputs": [],
      "stateMutability": "nonpayable",
      "type": "function"
    },
    {
      "inputs": [],
      "name": "voterRegistry",
      "outputs": [
        {
          "internalType": "contract IIVoterRegistry",
          "name": "",
          "type": "address"
        }
      ],
      "stateMutability": "view",
      "type": "function"
    }
  ],
  "bytecode": "0x608060405234801561001057600080fd5b5060405161134538038061134583398101604081905261002f9161005f565b80610058817f714f205b2abd25bef1d06a1af944e38c113fe6160375c4e1d6d5cf28848e771955565b505061008f565b60006020828403121561007157600080fd5b81516001600160a01b038116811461008857600080fd5b9392505050565b6112a78061009e6000396000f3fe608060405234801561001057600080fd5b50600436106100935760003560e01c8063be60040e11610066578063be60040e14610156578063ea8eb77d14610169578063f116d1dd1461017c578063f707f6121461019c578063faae7fc9146101af57600080fd5b806319549e921461009857806350b1d61b146100ef5780635267a15d1461011a578063b00c0b7614610141575b600080fd5b6100da6100a6366004610e09565b62ffffff821660009081526003602090815260408083206001600160a01b0385168452600101909152902054151592915050565b60405190151581526020015b60405180910390f35b600154610102906001600160a01b031681565b6040516001600160a01b0390911681526020016100e6565b7f714f205b2abd25bef1d06a1af944e38c113fe6160375c4e1d6d5cf28848e771954610102565b61015461014f366004610f21565b6101c2565b005b600254610102906001600160a01b031681565b610154610177366004610fda565b6102a6565b61018f61018a36600461101b565b6107a5565b6040516100e6919061103f565b6101546101aa36600461101b565b610817565b600054610102906001600160a01b031681565b7f714f205b2abd25bef1d06a1af944e38c113fe6160375c4e1d6d5cf28848e7719546001600160a01b0316336001600160a01b0316146102405760405162461bcd60e51b815260206004820152601460248201527337b7363c9030b2323932b9b9903ab83230ba32b960611b60448201526064015b60405180910390fd5b61029861027483836040518060400160405280600e81526020016d20b2323932b9b9aab83230ba32b960911b8152506109e2565b7f714f205b2abd25bef1d06a1af944e38c113fe6160375c4e1d6d5cf28848e771955565b6102a28282610abd565b5050565b60008060009054906101000a90046001600160a01b03166001600160a01b031663705626976040518163ffffffff1660e01b8152600401602060405180830381865afa1580156102fa573d6000803e3d6000fd5b505050506040513d601f19601f8201168201806040525081019061031e9190611080565b6103299060016110b3565b600080546040516347c7cf9d60e11b815262ffffff8416600482015292935090916001600160a01b0390911690638f8f9f3a90602401608060405180830381865afa15801561037c573d6000803e3d6000fd5b505050506040513d601f19601f820116820180604052508101906103a091906110f3565b67ffffffffffffffff1693505050508060001461040b5760405162461bcd60e51b815260206004820152602360248201527f7072652d726567697374726174696f6e206e6f74206f70656e656420616e796d6044820152626f726560e81b6064820152608401610237565b62ffffff821660009081526003602090815260408083206001600160a01b0388168452600101909152902054156104845760405162461bcd60e51b815260206004820152601c60248201527f766f74657220616c7265616479207072652d72656769737465726564000000006044820152606401610237565b6002546001600160a01b0316634f5a9968856104a1600186611147565b6040516001600160e01b031960e085901b1681526001600160a01b03909216600483015262ffffff166024820152604401602060405180830381865afa1580156104ef573d6000803e3d6000fd5b505050506040513d601f19601f820116820180604052508101906105139190611163565b61055f5760405162461bcd60e51b815260206004820152601e60248201527f766f7465722063757272656e746c79206e6f74207265676973746572656400006044820152606401610237565b6040805162ffffff84166020808301919091526001600160a01b03871682840152825180830384018152606090920190925280519101207f19457468657265756d205369676e6564204d6573736167653a0a3332000000006000908152601c829052603c8120905060006105e9826105da6020890189611185565b88602001358960400135610bc2565b6002549091506000906001600160a01b031663fff5075361060b600189611147565b6040516001600160e01b031960e084901b16815262ffffff9091166004820152602401602060405180830381865afa15801561064b573d6000803e3d6000fd5b505050506040513d601f19601f8201168201806040525081019061066f91906111a8565b60015460405163385e3b1360e21b81526001600160a01b038581166004830152602482018490529293506000929091169063e178ec4c90604401602060405180830381865afa1580156106c6573d6000803e3d6000fd5b505050506040513d601f19601f820116820180604052508101906106ea91906111c1565b9050886001600160a01b0316816001600160a01b0316146107415760405162461bcd60e51b8152602060048201526011602482015270696e76616c6964207369676e617475726560781b6044820152606401610237565b62ffffff8716600090815260036020526040902061075f908a610bf0565b60405162ffffff8816906001600160a01b038b16907f33dfb7ce87c082c21fdb6b5833ba631717f7fd8d8bf8311426fe740ecd2e71fd90600090a3505050505050505050565b62ffffff811660009081526003602090815260409182902080548351818402810184019094528084526060939283018282801561080b57602002820191906000526020600020905b81546001600160a01b031681526001909101906020018083116107ed575b50505050509050919050565b6000546001600160a01b031633146108715760405162461bcd60e51b815260206004820152601a60248201527f6f6e6c7920666c6172652073797374656d73206d616e616765720000000000006044820152606401610237565b62ffffff81166000908152600360209081526040808320805482518185028101850190935280835291929091908301828280156108d757602002820191906000526020600020905b81546001600160a01b031681526001909101906020018083116108b9575b5050505050905060005b81518110156109dd5760025482516001600160a01b03909116906318d1812d90849084908110610913576109136111de565b60200260200101516040518263ffffffff1660e01b815260040161094691906001600160a01b0391909116815260200190565b600060405180830381600087803b15801561096057600080fd5b505af1925050508015610971575060015b6109cb578262ffffff1682828151811061098d5761098d6111de565b60200260200101516001600160a01b03167f925794c2e759216f395d05fc6e6c1ff4632b87077831f9a8fe78d448203ccddc60405160405180910390a35b806109d5816111f4565b9150506108e1565b505050565b600080826040516020016109f6919061120d565b6040516020818303038152906040528051906020012090506000805b8651811015610a6e57868181518110610a2d57610a2d6111de565b60200260200101518303610a5c57858181518110610a4d57610a4d6111de565b60200260200101519150610a6e565b80610a66816111f4565b915050610a12565b506001600160a01b038116610ab45760405162461bcd60e51b815260206004820152600c60248201526b61646472657373207a65726f60a01b6044820152606401610237565b95945050505050565b610aed82826040518060400160405280600d81526020016c566f746572526567697374727960981b8152506109e2565b600260006101000a8154816001600160a01b0302191690836001600160a01b03160217905550610b49828260405180604001604052806013815260200172233630b932a9bcb9ba32b6b9a6b0b730b3b2b960691b8152506109e2565b6000806101000a8154816001600160a01b0302191690836001600160a01b03160217905550610b9e82826040518060400160405280600d81526020016c22b73a34ba3ca6b0b730b3b2b960991b8152506109e2565b600180546001600160a01b0319166001600160a01b03929092169190911790555050565b600080600080610bd488888888610c58565b925092509250610be48282610d27565b50909695505050505050565b6001600160a01b038116600090815260018301602052604090205415610c14575050565b8154600181810184556000848152602080822090930180546001600160a01b039095166001600160a01b031990951685179055845493815293019052604090912055565b600080807f7fffffffffffffffffffffffffffffff5d576e7357a4501ddfe92f46681b20a0841115610c935750600091506003905082610d1d565b604080516000808252602082018084528a905260ff891692820192909252606081018790526080810186905260019060a0016020604051602081039080840390855afa158015610ce7573d6000803e3d6000fd5b5050604051601f1901519150506001600160a01b038116610d1357506000925060019150829050610d1d565b9250600091508190505b9450945094915050565b6000826003811115610d3b57610d3b61125b565b03610d44575050565b6001826003811115610d5857610d5861125b565b03610d765760405163f645eedf60e01b815260040160405180910390fd5b6002826003811115610d8a57610d8a61125b565b03610dab5760405163fce698f760e01b815260048101829052602401610237565b6003826003811115610dbf57610dbf61125b565b036102a2576040516335e2f38360e21b815260048101829052602401610237565b62ffffff81168114610df157600080fd5b50565b6001600160a01b0381168114610df157600080fd5b60008060408385031215610e1c57600080fd5b8235610e2781610de0565b91506020830135610e3781610df4565b809150509250929050565b634e487b7160e01b600052604160045260246000fd5b604051601f8201601f1916810167ffffffffffffffff81118282101715610e8157610e81610e42565b604052919050565b600067ffffffffffffffff821115610ea357610ea3610e42565b5060051b60200190565b600082601f830112610ebe57600080fd5b81356020610ed3610ece83610e89565b610e58565b82815260059290921b84018101918181019086841115610ef257600080fd5b8286015b84811015610f16578035610f0981610df4565b8352918301918301610ef6565b509695505050505050565b60008060408385031215610f3457600080fd5b823567ffffffffffffffff80821115610f4c57600080fd5b818501915085601f830112610f6057600080fd5b81356020610f70610ece83610e89565b82815260059290921b84018101918181019089841115610f8f57600080fd5b948201945b83861015610fad57853582529482019490820190610f94565b96505086013592505080821115610fc357600080fd5b50610fd085828601610ead565b9150509250929050565b6000808284036080811215610fee57600080fd5b8335610ff981610df4565b92506060601f198201121561100d57600080fd5b506020830190509250929050565b60006020828403121561102d57600080fd5b813561103881610de0565b9392505050565b6020808252825182820181905260009190848201906040850190845b81811015610be45783516001600160a01b03168352928401929184019160010161105b565b60006020828403121561109257600080fd5b815161103881610de0565b634e487b7160e01b600052601160045260246000fd5b62ffffff8181168382160190808211156110cf576110cf61109d565b5092915050565b805167ffffffffffffffff811681146110ee57600080fd5b919050565b6000806000806080858703121561110957600080fd5b611112856110d6565b9350611120602086016110d6565b925061112e604086016110d6565b915061113c606086016110d6565b905092959194509250565b62ffffff8281168282160390808211156110cf576110cf61109d565b60006020828403121561117557600080fd5b8151801515811461103857600080fd5b60006020828403121561119757600080fd5b813560ff8116811461103857600080fd5b6000602082840312156111ba57600080fd5b5051919050565b6000602082840312156111d357600080fd5b815161103881610df4565b634e487b7160e01b600052603260045260246000fd5b6000600182016112065761120661109d565b5060010190565b600060208083528351808285015260005b8181101561123a5785810183015185820160400152820161121e565b506000604082860101526040601f19601f8301168501019250505092915050565b634e487b7160e01b600052602160045260246000fdfea2646970667358221220752df7da93da8c24a22dea387ca83c5d78066f131b0059cc444f0fca02cd97ba64736f6c63430008140033",
  "linkReferences": {},
  "deployedLinkReferences": {}
}